:020000040000FA
:0600000074EF01F0120094
:020006000000F8
:0600080007EF00F01200FA
:02000E00DACF47
:10001000E4FFE2CFDAFFE9CFE4FFEACFE4FFF6CF77
:10002000E4FFF7CFE4FFF5CFE4FFF3CFE4FFF4CF35
:10003000E4FFFACFE4FF00EE00F0020EE80403E371
:10004000EECFE4FFFBD700EE02F0020EE80403E37C
:10005000EECFE4FFFBD7E652F2A402D0F29408D030
:10006000A4AA06D0A49A45EC01F0CC0801E189705D
:10007000E55200EE03F0020EE80403E3E5CFEDFFE6
:10008000FBD700EE01F0020EE80403E3E5CFEDFF3D
:10009000FBD7E5CFFAFFE5CFF4FFE5CFF3FFE5CFE0
:1000A000F5FFE5CFF7FFE5CFF6FFE5CFEAFFE5CFB8
:1000B000E9FFE5CFDAFF110004D807D816D88990F8
:1000C000FFD79290F28EF28C1200F28A830ED56ED8
:1000D000F2941200FD0EE66EE66A1C0EE66E0CEC63
:1000E00001F0E552E552E5521200FD0EE66EE66AB9
:1000F0005C0EE66ED0EC00F0E552E552E552A49AB3
:020100001200EB
:0E010200060EF66E000EF76E000EF86E0E0181
:100110000900F550176F0900F550186F03E11767D4
:1001200001D03DD00900F550126F0900F550136F52
:100130000900F550146F09000900F550E96E090037
:10014000F550EA6E090009000900F550156F090025
:10015000F550166F09000900F6CF19FEF7CF1AFE09
:10016000F8CF1BFE12CEF6FF13CEF7FF14CEF8FF2A
:100170000E01155302E1165307E00900F550EE6E2B
:100180001507F8E21607F9D719CEF6FF1ACEF7FFD2
:100190001BCEF8FF0E011707000E185BBFD7120029
:1001A000D9CFE6FFDACFE6FFE1CFD9FFE2CFDAFF22
:1001B000BA6AA66AFD0EDBB0BA88DBA202D0BA8C9E
:1001C000A68CDBB4BA8EDBA602D0A68801D0A68AA4
:1001D000DBA802D0BA8401D0BA94DBBAA686DBAC25
:1001E00002D0A38A01D0A39ADBAE02D0A38801D0AB
:1001F000A398FB0EDB507B6EFC0EDBCF03F003C03D
:1002000002F0036A02507C6EBA8AA68EE552E5CFF0
:08021000DAFFE7CFD9FF12006D
:08021800D9CFE6FFDACFE6FFC3
:10022000E1CFD9FFE2CFDAFFAC6AAB6AFD0EDBB0FB
:10023000AC88DBA202D0AC8CAB8CDBB4AC8EDBA682
:1002400002D0AB8801D0AB8ADBB8AC84DBBAAB861A
:10025000DBAC02D09D8A01D09D9ADBAE02D09D8896
:1002600001D09D98FB0EDB50AF6EFC0EDBCF03F090
:1002700003C002F0036A02507D6EAC8AAB8EE55279
:0A028000E5CFDAFFE7CFD9FF120047
:06028A00D9CFE6FFDACF38
:10029000E6FFE1CFD9FFE2CFDAFFE652F20E0E0120
:1002A0001C17A6AC03D01C91A6B01C81A6B41C855B
:1002B000A6B21C877A50DF6EDF50E552E552E5CFDB
:0802C000DAFFE7CFD9FF1200BD
:0802C800410EF36E00EE00F0A0
:1002D0000E0E01D81200EA6002D0EE6AFCD7F3508D
:0802E000E9601200EE6AFCD790
:0802E8001DEE00F02DEE00F008
:1002F000F86A019C81EC00F082EC01F05CEC00F00B
:04030000FBD7120015
:020304001200E5
:020000040030CA
:010000001DE2
:0100010008F6
:010002007885
:010003007C80
:010005008971
:010006009168
:00000001FF
