:020000040000FA
:060000007BEF00F012008E
:020006000000F8
:0600080056EF00F01200AB
:02000E00060EDC
:10001000F66E000EF76E000EF86E0E010900F55038
:10002000176F0900F550186F03E1176701D03DD035
:100030000900F550126F0900F550136F0900F550D3
:10004000146F09000900F550E96E0900F550EA6ED9
:10005000090009000900F550156F0900F550166FE9
:1000600009000900F6CF19FEF7CF1AFEF8CF1BFEE4
:1000700012CEF6FF13CEF7FF14CEF8FF0E01155384
:1000800002E1165307E00900F550EE6E1507F8E29D
:100090001607F9D719CEF6FF1ACEF7FF1BCEF8FFD9
:0C00A0000E011707000E185BBFD71200FE
:0400AC00DACFE4FFC4
:1000B000E652F2A402D0F2948970E552E5CFDAFF5D
:1000C00011009290899001D8FFD7F294F28AF28EB3
:0600D000830ED56E120044
:0A00D600410EF36E00EE00F00E0E76
:1000E00001D81200EA6002D0EE6AFCD7F350E96052
:0600F0001200EE6AFCD7CD
:0A00F6001DEE00F02DEE00F0F86A98
:10010000019C07EC00F089EC00F061EC00F0FBD7FB
:020110001200DB
:020112001200D9
:020000040030CA
:010000001DE2
:0100010008F6
:010002007885
:010003007C80
:010005008971
:010006009168
:00000001FF
