:020000040000FA
:0600000041EF02F01200C6
:020006001200E6
:060008000EEF00F01200F3
:02000E000100EF
:0C0010009E0400001C0E00000200000016
:04001C00DACFE4FF54
:10002000E2CFDAFFE9CFE4FFEACFE4FFF6CFE4FF67
:10003000F7CFE4FFF5CFE4FFF3CFE4FFF4CFE4FF25
:10004000FACFE4FF00EE04F0020EE80403E3EECF83
:10005000E4FFFBD700EE00F0040EE80403E3EECF6C
:10006000E4FFFBD7E652F2A402D0F29424D09EAA79
:1000700007D09E9AE4EC01F0CF081DE189701BD0F7
:10008000A4AA19D0A49A0F0E0E011DAF02D0D890C9
:1000900003D01C5D000E1D5906E21C2B000E1D2313
:1000A000C5EC01F0F0D7C5EC01F0FF0804E1897060
:1000B0000E011C6B1D6BE55200EE03F0040EE8040C
:1000C00003E3E5CFEDFFFBD700EE05F0020EE804F9
:1000D00003E3E5CFEDFFFBD7E5CFFAFFE5CFF4FF74
:1000E000E5CFF3FFE5CFF5FFE5CFF7FFE5CFF6FF6F
:1000F000E5CFEAFFE5CFE9FFE5CFDAFF110005D84C
:1001000008D818D80BD88990FFD79290F28EF28C2D
:100110001200F28A830ED56EF2941200FD0EE66E86
:10012000E66A5C0EE66E8CEC01F0E552E552E552B3
:100130009E9A1200FD0EE66EE66A5C0EE66E50ECCC
:1001400001F0E552E552E552A49A1200D9CFE6FF3C
:10015000E1CFD9FF020EE126DE6ADD6ADE6ADD6AE2
:10016000DECF00F0DDCF01F0FB0EDBCF02F0FC0EA6
:10017000DBCF03F001500318E8AE02D0033404D003
:100180000250005C0350015832E2FA0EDB50020AC2
:1001900016E0030A27E1FD0EDBCF00F0FE0EDBCFF9
:1001A00001F0DE500024E96EDD500120EA6EEF50D0
:1001B000E66E1AEC02F0E552ACB214D0FDD7FD0E9B
:1001C000DBCF00F0FE0EDBCF01F0DE500024E96E45
:1001D000DD500120EA6EEF50E66E03EC02F0E552CE
:1001E000BAA2FED7DF2A010EBBE3DB2AB9D7020E83
:1001F000E15C02E2E16AE552E16EE552E7CFD9FF48
:020200001200EA
:0E0202000E0EF66E000EF76E000EF86E0E0178
:100210000900F550176F0900F550186F03E11767D3
:1002200001D03DD00900F550126F0900F550136F51
:100230000900F550146F09000900F550E96E090036
:10024000F550EA6E090009000900F550156F090024
:10025000F550166F09000900F6CF19FEF7CF1AFE08
:10026000F8CF1BFE12CEF6FF13CEF7FF14CEF8FF29
:100270000E01155302E1165307E00900F550EE6E2A
:100280001507F8E21607F9D719CEF6FF1ACEF7FFD1
:100290001BCEF8FF0E011707000E185BBFD7120028
:1002A000D9CFE6FFDACFE6FFE1CFD9FFE2CFDAFF21
:1002B000BA6AA66AFD0EDBB0BA88DBA202D0BA8C9D
:1002C000A68CDBB4BA8EDBA602D0A68801D0A68AA3
:1002D000DBA802D0BA8401D0BA94DBBAA686DBAC24
:1002E00002D0A38A01D0A39ADBAE02D0A38801D0AA
:1002F000A398FB0EDB507B6EFC0EDBCF01F001C040
:1003000000F0016A00507C6EBA8AA68EE552E5CFF5
:08031000DAFFE7CFD9FF12006C
:08031800D9CFE6FFDACFE6FFC2
:10032000E1CFD9FFE2CFDAFFAC6AAB6AFD0EDBB0FA
:10033000AC88DBA202D0AC8CAB8CDBB4AC8EDBA681
:1003400002D0AB8801D0AB8ADBB8AC84DBBAAB8619
:10035000DBAC02D09D8A01D09D9ADBAE02D09D8895
:1003600001D09D98FB0EDB50AF6EFC0EDBCF01F091
:1003700001C000F0016A00507D6EAC8AAB8EE55280
:0A038000E5CFDAFFE7CFD9FF120046
:06038A00D9CFE6FFDACF37
:10039000E6FFE1CFD9FFE2CFDAFFE652F20E0E011F
:1003A0001E17A6AC03D01E91A6B01E81A6B41E8552
:1003B000A6B21E877A50DF6EDF50E552E552E5CFD8
:0803C000DAFFE7CFD9FF1200BC
:0803C800D9CFE6FFDACFE6FF12
:1003D000E1CFD9FFE2CFDAFFE652F20E0E011F178E
:1003E000ABAC03D01F91ABB01F81ABB41F85ABB2D8
:1003F0001F87AE50DF6EDF50E552E552E5CFDAFFE2
:06040000E7CFD9FF120056
:0A040600D9CFE6FFDACFE6FFE1CF21
:10041000D9FFE2CFDAFFBAAC04D0BA900E011EB316
:10042000BA80FD0EDB50796EE552E5CFDAFFE7CFFB
:04043000D9FF1200DE
:0C043400D9CFE6FFDACFE6FFE1CFD9FF19
:10044000E2CFDAFFACAC04D0AC900E011FB3AC80AD
:10045000FD0EDB50AD6EE552E5CFDAFFE7CFD9FFF9
:02046000120088
:0E046200410EF36E00EE00F00E0E01D81200F7
:10047000EA6002D0EE6AFCD7F350E9601200EE6A3F
:02048000FCD7A7
:0E0482001DEE00F02DEE00F0F86A059C01EC76
:0E04900001F003EC00F07FEC00F0FBD712004F
:02049E0000005C
:020000040030CA
:010000001DE2
:0100010008F6
:010002007885
:010003007C80
:010005008971
:010006009168
:00000001FF
