:020000040000FA
:06000000A3EF0BF012005B
:020006001200E6
:060008000EEF00F01200F3
:02000E000100EF
:0C00100062170000D9000000040000008E
:04001C00DACFE4FF54
:10002000E2CFDAFFE9CFE4FFEACFE4FFF6CFE4FF67
:10003000F7CFE4FFF5CFE4FFF3CFE4FFF4CFE4FF25
:10004000FACFE4FF00EE06F0020EE80403E3EECF81
:10005000E4FFFBD700EE00F0060EE80403E3EECF6A
:10006000E4FFFBD7E652F2A402D0F2942CD09EAA71
:1000700003D046EC0BF027D0A4AA23D07F0EE66E67
:10008000000EE66ED90EE66E000EE66EEED9E55273
:10009000E552E552E5520001DA3515E2D9510C0876
:1000A000000EDA5510E2D9C0E6FFDAC0E6FF7F0E97
:1000B000E66E000EE66EA7DAE552E552E552E5522D
:1000C00002D077B08970E55200EE05F0060EE80424
:1000D00003E3E5CFEDFFFBD700EE07F0020EE804E7
:1000E00003E3E5CFEDFFFBD7E5CFFAFFE5CFF4FF64
:1000F000E5CFF3FFE5CFF5FFE5CFF7FFE5CFF6FF5F
:10010000E5CFEAFFE5CFE9FFE5CFDAFF110007D839
:100110000CD81CD80FD826D889904AD8FFD79290EF
:1001200093949386F28EF28C1200F28A830ED56E2F
:10013000F29412000C0EE66EE66A6C0EE66EEEECC1
:100140000AF0E552E552E5529E9A1200190EE66E4B
:10015000E66A6C0EE66EB2EC0AF0E552E552E55244
:10016000A49A1200060EE66E010EE66E050EE66E0D
:10017000010EE66EE66E59EC07F0006E050EE15ECC
:100180000050200EE66EFF0EE66EE66AD0EC09F037
:10019000E552E552E552040EE66EE66AE66A06ECC2
:1001A0000AF0E552E552E5527680609E77901200A3
:1001B000D9CFE6FFE1CFD9FF1B0EE126240EDF6E7B
:1001C000DE52500EDD6E530EF36E020EF3CFDBFFE8
:1001D000520EF36E030EF3CFDBFF460EF36E040EEA
:1001E000F3CFDBFF310EF36E050EF3CFDBFF300EE6
:1001F000F36E060EF3CFDBFF330EF36E070EF3CF75
:10020000DBFF2C0EF36E080EF3CFDBFF300EF36E28
:10021000090EF3CFDBFF350EF36E0A0EF3CFDBFFD3
:100220002C0EF36E0B0EF3CFDBFF300EF36E0C0EC5
:10023000F3CFDBFF300EF36E0D0EF3CFDBFF2C0E92
:10024000F36E0E0EF3CFDBFF300EF36E0F0EF3CF17
:10025000DBFF300EF36E100EF3CFDBFF2C0EF36ED0
:10026000110EF3CFDBFF300EF36E120EF3CFDBFF78
:10027000310EF36E130EF3CFDBFF2A0EF36E140E66
:10028000F3CFDBFF320EF36E150EF3CFDBFF310E33
:10029000F36E160EF3CFDBFF0D0EF36E170EF3CFDA
:1002A000DBFF0A0EF36E180EF3CFDBFFD950190FE8
:1002B000E96EDACFEAFFEE6AEE6A020EE66E1B0E18
:1002C000E66EE66AD9CFE6FFDACFE6FF73D8006EB6
:1002D000050EE15E0050340EF36E0A0EF3CFDBFF25
:1002E000300EF36E160EF3CFDBFF020EE66E190E24
:1002F000E66EE66AD9CFE6FFDACFE6FF5BD8006E9E
:10030000050EE15E0050330EF36E0A0EF3CFDBFFF5
:10031000370EF36E160EF3CFDBFF020EE66E190EEC
:10032000E66EE66AD9CFE6FFDACFE6FF43D8006E85
:10033000050EE15E0050320EF36E0A0EF3CFDBFFC6
:10034000360EF36E160EF3CFDBFF020EE66E190EBD
:10035000E66EE66AD9CFE6FFDACFE6FF2BD8006E6D
:10036000050EE15E0050300EF36E0A0EF3CFDBFF98
:10037000310EF36E100EF3CFDBFF350EF36E160E5B
:10038000F3CFDBFF020EE66E190EE66EE66AD9CFFA
:10039000E6FFDACFE6FF0ED8006E050EE15E0050F4
:1003A0001B0EE15C02E2E16AE552E16EE552E7CF45
:1003B000D9FF1200D9CFE6FFE1CFD9FF020EE12627
:1003C000DE6ADD6ADE6ADD6ADECF00F0DDCF01F0D5
:1003D000FB0EDBCF02F0FC0EDBCF03F00150031865
:1003E000E8AE02D0033404D00250005C0350015840
:1003F00032E2FA0EDB50020A16E0030A27E1FD0E94
:10040000DBCF00F0FE0EDBCF01F0DE500024E96E02
:10041000DD500120EA6EEF50E66E7CEC0BF0E55209
:10042000ACB214D0FDD7FD0EDBCF00F0FE0EDBCF5B
:1004300001F0DE500024E96EDD500120EA6EEF503D
:10044000E66E65EC0BF0E552BAA2FED7DF2A010E8C
:10045000BBE3DB2AB9D7020EE15C02E2E16AE552B6
:10046000E16EE552E7CFD9FF1200D9CFE6FFE1CF29
:10047000D9FFFD0EDBCFE9FFFE0EDBCFEAFFEE6A10
:10048000ED6A0001DB51DC1118E127EC0BF02408C8
:1004900001E0B5D0FB0EDB500001DB250F01E96E5A
:1004A000FC0EDB500001DC210F01EA6E240EEF6E22
:1004B0000001DB2B000EDC23A2D027EC0BF0E66E54
:1004C000FB0EDB500001DB250F01E96EFC0EDB505B
:1004D0000001DC210F01EA6EE552E750EF6E0001EA
:1004E000DB2B000EDC23DBC000F0DCC001F00006DB
:1004F000015AFB0EDB500024E96EFC0EDB5001209C
:10050000EA6EEF500A0809E0500EDCAF02D0D89036
:1005100003D0DB5D000EDC5972E3DB07000EDC5B11
:10052000FB0EDBCFE9FFFC0EDBCFEAFFEF50240828
:1005300064E1010EE76EFB0EDBCFE9FFFC0EDBCFC3
:10054000EAFFE750E926000EEA22EF50470855E19E
:10055000020EE76EFB0EDBCFE9FFFC0EDBCFEAFFFE
:10056000E750E926000EEA22EF50500846E1030E5C
:10057000E76EFB0EDBCFE9FFFC0EDBCFEAFFE750B7
:10058000E926000EEA22EF50470837E1040EE76E35
:10059000FB0EDBCFE9FFFC0EDBCFEAFFE750E926DD
:1005A000000EEA22EF50470828E1050EE76EFB0E29
:1005B000DBCFE9FFFC0EDBCFEAFFE750E926000EB8
:1005C000EA22EF50410819E1060EE76EFB0EDBCF81
:1005D000E9FFFC0EDBCFEAFFE750E926000EEA2236
:1005E000EF502C080AE1FD0EDBCFE9FFFE0EDBCF5A
:1005F000EAFFDBC0EEFFDCC0EDFFDB6BDC6BE5523E
:10060000E7CFD9FF1200D9CFE6FFE1CFD9FF150E12
:10061000E126DE6ADD6A020EDB6A030EDB6A140E77
:10062000DB6A010EDE6EDD6ADECF00F0DDCF01F0A9
:10063000FB0EDBCF02F0FC0EDBCF03F0040E025EFC
:10064000000E035A01500318E8AE02D0033404D060
:100650000250005C035001581BE2140EDBCFE6FF92
:10066000FD0EDBCF00F0FE0EDBCF01F0DE500024EC
:10067000E96EDD500120EA6EEF50E552E718E76EB3
:10068000140EE7CFDBFFDF2A010ECEE3DB2ACCD747
:10069000FB0EDBCF02F0FC0EDBCF03F0030E025E9D
:1006A000000E035AFD0EDB500224E96EFE0EDB50F5
:1006B0000320EA6EEF50E66E98DBE552E66EFB0E25
:1006C000DBCF00F0FC0EDBCF01F0030E005E000E6E
:1006D000015AFD0EDB500024E96EFE0EDB500120B6
:1006E000EA6EE552E750EF6EFB0EDBCF02F0FC0E38
:1006F000DBCF03F0020E025E000E035AFD0EDB504C
:100700000224E96EFE0EDB500320EA6EEF50E66E27
:100710006CDBE552E66EFB0EDBCF00F0FC0EDBCFB0
:1007200001F0020E005E000E015AFD0EDB500024A7
:10073000E96EFE0EDB500120EA6EE552E750EF6EE7
:10074000FB0EDBCF04F0FC0EDBCF05F0020E045EE7
:10075000000E055AFD0EDB500424E96EFE0EDB5040
:100760000520EA6EEFCF03F0FB0EDBCF01F0FC0EAD
:10077000DBCF02F0030E015E000E025AFD0EDB50CD
:100780000124E96EFE0EDB500220EA6EEF38F00B1A
:100790000324006E140EDB50005C01E01CD3080E35
:1007A000E76EFD0EDBCFE9FFFE0EDBCFEAFFE75081
:1007B000E926000EEA22EF50E66E17DBE552006EE6
:1007C000E66E070EE76EFD0EDBCFE9FFFE0EDBCF18
:1007D000EAFFE750E926000EEA22EF50E66E05DB5D
:1007E000E552E552E7CF00F00A0DF3500024000176
:1007F0006E6F0A0EE76EFD0EDBCFE9FFFE0EDBCF5C
:10080000EAFFE750E926000EEA22EF50E66EEDDA45
:10081000E552006EE66E090EE76EFD0EDBCFE9FFD6
:10082000FE0EDBCFEAFFE750E926000EEA22EF508A
:10083000E66EDBDAE552E552E7CF00F00A0DF35041
:10084000002400016F6F0C0EE76EFD0EDBCFE9FF99
:10085000FE0EDBCFEAFFE750E926000EEA22EF505A
:10086000E66EC3DAE552006EE66E0B0EE76EFD0E25
:10087000DBCFE9FFFE0EDBCFEAFFE750E926000EF3
:10088000EA22EF50E66EB1DAE552E552E7CF00F02A
:100890000A0DF35000240001706FFB0EDBCFE6FF62
:1008A000FC0EDBCFE6FF0D0EE66EE66AFD0EDBCF3B
:1008B000E6FFFE0EDBCFE6FFB6DA006E060EE15E67
:1008C0000050F3CFDEFFF4CFDDFFFB0EDBCFE6FF02
:1008D000FC0EDBCFE6FFDECF00F0DDCF01F0010E36
:1008E0000026000E012200C0E6FF01C0E6FFFD0E5B
:1008F000DBCFE6FFFE0EDBCFE6FF95DA026E060EDB
:10090000E15E0250020EF3CFDBFF030EF4CFDBFFFC
:10091000020EDBCF02F0030EDBCF03F0DE50025CF1
:10092000006EDD500358016EE83401E3CDD0005075
:100930000308000E015401E3C7D0DF2A010E01E3D2
:10094000DB2ADECF03F0DDCF04F00326000E042205
:10095000FD0EDB500324E96EFE0EDB500420EA6E30
:10096000EF50E66E42DAE552026EE66EFD0EDBCF28
:1009700000F0FE0EDBCF01F0DE500024E96EDD500A
:100980000120EA6EEF50E66E30DAE552E552E7CF2D
:1009900002F00A0DF35002240001716F020EDE26F0
:1009A000000EDD22DECF03F0DDCF04F0010E0326C2
:1009B000000E0422FD0EDB500324E96EFE0EDB5018
:1009C0000420EA6EEF50E66E10DAE552026EE66E33
:1009D000FD0EDBCF00F0FE0EDBCF01F0DE50002479
:1009E000E96EDD500120EA6EEF50E66EFED9E55269
:1009F000E552E7CF02F00A0DF35002240001726FB6
:100A0000030EDE26000EDD22DECF03F0DDCF04F084
:100A1000010E0326000E0422FD0EDB500324E96EB6
:100A2000FE0EDB500420EA6EEF50E66EDED9E55292
:100A3000026EE66EFD0EDBCF00F0FE0EDBCF01F0A6
:100A4000DE500024E96EDD500120EA6EEF50E66EC4
:100A5000CCD9E552E552E7CF02F00A0DF35002245B
:100A60000001736F020EDE26000EDD22DECF03F0E2
:100A7000DDCF04F0010E0326000E0422FD0EDB5034
:100A80000324E96EFE0EDB500420EA6EEF50E66EA2
:100A9000ACD9E552026EE66EFD0EDBCF00F0FE0E25
:100AA000DBCF01F0DE500024E96EDD500120EA6E5C
:100AB000EF50E66E9AD9E552E552E7CF02F00A0D03
:100AC000F35002240001746F010EE76E020EDBCFBB
:100AD00000F0030EDBCF01F0E7500026000E0122EC
:100AE000FD0EDB500024E96EFE0EDB500120EA6EA5
:100AF000EFCF75F0020EE76EDBCF00F0030EDBCF19
:100B000001F0E7500026000E012200C0DEFF01C008
:100B1000DDFFFB0EDBCFE6FFFC0EDBCFE6FF030EB7
:100B2000E76E020EDBCF00F0030EDBCF01F0E750E3
:100B30000026000E012200C0E6FF01C0E6FFFD0E08
:100B4000DBCFE6FFFE0EDBCFE6FF6DD9026E060EB1
:100B5000E15E0250020EF3CFDBFF030EF4CFDBFFAA
:100B6000020EDBCF02F0030EDBCF03F0DE50025C9F
:100B7000006EDD500358016EE83401E3CED0005022
:100B80000308000E015401E3C8D0020EDE26000E59
:100B9000DD22DECF03F0DDCF04F0010E0326000ED0
:100BA0000422FD0EDB500324E96EFE0EDB50042010
:100BB000EA6EEF50E66E19D9E552026EE66EFD0E52
:100BC000DBCF00F0FE0EDBCF01F0DE500024E96E3B
:100BD000DD500120EA6EEF50E66E07D9E552E5528E
:100BE000E7CF02F00A0DF35002240001766F020EE7
:100BF000DE26000EDD22DECF03F0DDCF04F0010E95
:100C00000326000E0422FD0EDB500324E96EFE0EC7
:100C1000DB500420EA6EEF50E66EE7D8E552026E34
:100C2000E66EFD0EDBCF00F0FE0EDBCF01F0DE50F6
:100C30000024E96EDD500120EA6EEF50E66ED5D853
:100C4000E552E552E7CF02F00A0DF350022400010D
:100C5000776F030EDE26000EDD22DECF03F0DDCF40
:100C600004F0010E0326000E0422FD0EDB500324C7
:100C7000E96EFE0EDB500420EA6EEF50E66EB5D84A
:100C8000E552026EE66EFD0EDBCF00F0FE0EDBCF0E
:100C900001F0DE500024E96EDD500120EA6EEF50D5
:100CA000E66EA3D8E552E552E7CF02F00A0DF35005
:100CB00002240001796F020EDE26000EDD22DECF57
:100CC00003F0DDCF04F0010E0326000E0422FD0E1A
:100CD000DB500324E96EFE0EDB500420EA6EEF5079
:100CE000E66E83D8E552026EE66EFD0EDBCF00F0B5
:100CF000FE0EDBCF01F0DE500024E96EDD50012056
:100D0000EA6EEF50E66E71D8E552E552E7CF02F099
:100D10000A0DF350022400017A6F010EE76E020EF5
:100D2000DBCF00F0030EDBCF01F0E7500026000E12
:100D30000122FD0EDB500024E96EFE0EDB50012087
:100D4000EA6EEFCF7BF0040E6EC0DBFF050E6FC0C6
:100D5000DBFF060E70C0DBFF2C0EF36E070EF3CF29
:100D6000DBFF080E71C0DBFF090E72C0DBFF0A0E4D
:100D700073C0DBFF0B0E74C0DBFF0C0E75C0DBFF16
:100D80002C0EF36E0D0EF3CFDBFF0E0E76C0DBFFE5
:100D90000F0E77C0DBFF100E79C0DBFF110E7AC09B
:100DA000DBFF120E7BC0DBFF0A0EF36E130EF3CFD8
:100DB000DBFF010EE66E100EE66EE66AD950040FF8
:100DC000E66E000EDA20E66EDAEC01F0006E050E3B
:100DD000E15E00508970150EE15C02E2E16AE552C5
:100DE000E16EE552E7CFD9FF1200D9CFE6FFE1CFA0
:100DF000D9FFE652FE0EDB50D00FDF6EDFCF00F0E2
:100E00000F0EE76E0018E8AE02D0003403D0E750B2
:100E1000D880005402E2070EDF5EDF50E552E55253
:100E2000E7CFD9FF1200D9CFE6FFE1CFD9FF020EFD
:100E3000E126FB0EDBCFDEFFDBCFDDFFFD0EDBCFE0
:100E400000F0FE0EDBCF01F0DE500024E96EDD5035
:100E50000120EA6EEF502C081AE0DECF02F0DDCF61
:100E600003F0F90EDBCF04F0FA0EDBCF05F00350F0
:100E70000518E8AE02D0053404D00450025C0550D9
:100E8000035805E2DF2A010ED9E3DB2AD7D7DECFEC
:100E900000F0DDCF01F000C0F3FF01C0F4FF020E4F
:100EA000E15C02E2E16AE552E16EE552E7CFD9FF8B
:020EB00012002E
:0E0EB200D9CFE6FFE1CFD9FF800E6F6E6EAE96
:100EC000FED77250726E708A7088FE0EDB50020B75
:100ED0000E01E8B0438FE8A0439FFE0EDB50010BEC
:100EE000E8B0438DE8A0439DFD0EDB50200BE8B039
:100EF000438BE8A0439BFD0EDB50100BE8B0438909
:100F0000E8A04399FD0EDB50080BE8B04387E8A04A
:100F10004397FD0EDB50040BE8B04385E8A04395F2
:100F2000FD0EDB50020BE8B04383E8A04393FD0EB7
:100F3000DB50010BE8B04381E8A04391FC0EDB508D
:100F4000040BE8B0448BE8A0449BFC0EDB50020B82
:100F5000E8B04489E8A04499FC0EDB50010BE8B0EE
:100F60004487E8A04497448FFB0EDB50040BE8B0A5
:100F70004585E8A04595FB0EDB50020BE8B04583A4
:100F8000E8A04593FB0EDB50010BE8B04581E8A0DB
:100F90004591FA0EDB50040BE8B04485E8A0449577
:100FA000FA0EDB50020BE8B04483E8A04493FA0E3B
:100FB000DB50010BE8B04481E8A04491609E609C46
:100FC000608AF86BF96B6F6AE00E6E14FDE1E55212
:100FD000E7CFD9FF1200D9CFE6FFE1CFD9FF030E4B
:100FE000E126DE6ADD6A6150080DF350E66EFD0E03
:100FF000DBCFE9FFFE0EDBCFEAFFE552E750EE6EF6
:10100000ED6A6250E00BE838E840006E016AFD0EC0
:10101000DBCFE9FFFE0EDBCFEAFF0050EE260150EA
:10102000ED220F0E6514E66EF90EDBCFE9FFFA0E26
:10103000DBCFEAFFE552E750EF6E020EDB6AF90EF6
:10104000DBCFE9FFFA0EDBCFEAFFEF50F36E020EC3
:10105000DBCFF4FFF350F45C01E389D0020EDB50E8
:10106000070A71E0010A60E0030A4FE0010A3EE06E
:10107000070A2DE0010A1CE0030A0BE0010A72E1F5
:10108000FB0EDBCFE9FFFC0EDBCFEAFF66CFEFFF05
:101090006BD0010EE76EFB0EDBCFE9FFFC0EDBCF62
:1010A000EAFFE750E926000EEA2267CFEFFF5CD0A7
:1010B000020EE76EFB0EDBCFE9FFFC0EDBCFEAFF93
:1010C000E750E926000EEA2268CFEFFF4DD0030E6D
:1010D000E76EFB0EDBCFE9FFFC0EDBCFEAFFE7504C
:1010E000E926000EEA2269CFEFFF3ED0040EE76E3C
:1010F000FB0EDBCFE9FFFC0EDBCFEAFFE750E92672
:10110000000EEA226ACFEFFF2FD0050EE76EFB0E2E
:10111000DBCFE9FFFC0EDBCFEAFFE750E926000E4C
:10112000EA226BCFEFFF20D0060EE76EFB0EDBCF7F
:10113000E9FFFC0EDBCFEAFFE750E926000EEA22CA
:101140006CCFEFFF11D0070EE76EFB0EDBCFE9FF90
:10115000FC0EDBCFEAFFE750E926000EEA226DCF56
:10116000EFFF02D0DE68DD68020EDB2A68D7609EE2
:101170007790DECF00F0DDCF01F000C0F3FF01C0BB
:10118000F4FF030EE15C02E2E16AE552E16EE55232
:10119000E7CFD9FF1200D9CFE6FFE1CFD9FF030E89
:1011A000E126DE6ADD6A0F0120B7E6D0020EDB6AB7
:1011B000FA0EDB50F36E020EDBCFF4FFF350F45C5B
:1011C00001E389D0020EDB50070A71E0010A60E0FA
:1011D000030A4FE0010A3EE0070A2DE0010A1CE085
:1011E000030A0BE0010A72E1FB0EDBCFE9FFFC0E04
:1011F000DBCFEAFFEFCF26FF6BD0010EE76EFB0ED1
:10120000DBCFE9FFFC0EDBCFEAFFE750E926000E5B
:10121000EA22EFCF27FF5CD0020EE76EFB0EDBCF9A
:10122000E9FFFC0EDBCFEAFFE750E926000EEA22D9
:10123000EFCF28FF4DD0030EE76EFB0EDBCFE9FFAB
:10124000FC0EDBCFEAFFE750E926000EEA22EFCFE3
:1012500029FF3ED0040EE76EFB0EDBCFE9FFFC0E4C
:10126000DBCFEAFFE750E926000EEA22EFCF2AFFA4
:101270002FD0050EE76EFB0EDBCFE9FFFC0EDBCFB8
:10128000EAFFE750E926000EEA22EFCF2BFF20D03D
:10129000060EE76EFB0EDBCFE9FFFC0EDBCFEAFFAD
:1012A000E750E926000EEA22EFCF2CFF11D0070EFF
:1012B000E76EFB0EDBCFE9FFFC0EDBCFEAFFE7506A
:1012C000E926000EEA22EFCF2DFF02D0DE68DD68AE
:1012D000020EDB2A6DD70F012297FD0EDBCF00F047
:1012E000FE0EDBCF01F0F80E0016070E0116030EFE
:1012F000D89001320032E804FBE100C021FF070E64
:10130000E76EFD0EDBCF00F0FE0EE7500016016A1F
:10131000050ED8900036E804FCE100C022FFFA0E6A
:10132000DB50080BE840E840E8401F0B0F01E8B035
:101330002587E8A02597FA0EDB50040BE840E8402B
:101340003F0BE8B02585E8A02595FA0EDB50020B8F
:10135000E8407F0BE8B02583E8A02593FA0EDB5028
:10136000010BE8B02581E8A02591259DF90EDB5001
:101370002011206F208702D0DE68DD68DECF00F00C
:10138000DDCF01F000C0F3FF01C0F4FF030EE15C0C
:1013900002E2E16AE552E16EE552E7CFD9FF1200C1
:1013A000D9CFE6FFE1CFD9FF800E6F6E6EAEFED7CC
:1013B000FD0EDBCF00F0FE0EDBCF01F0F80E0016C5
:1013C000070E0116030ED89001320032E804FBE14B
:1013D00000C0F8FE070EE76EFD0EDBCF00F0FE0E3C
:1013E000E7500016016A050ED8900036E804FCE1CB
:1013F00000C0F9FEFC0EDB506010606E6F6AE00EFC
:101400006E14FDE1E552E7CFD9FF1200D9CFE6FF18
:10141000E1CFD9FF800E6F6E6EAEFED7FE0EDB50B1
:10142000010A25E1FC0EDBCF00F0FD0EDBCF01F061
:10143000F80E0016070E0116030ED8900132003286
:10144000E804FBE100C0E4FE070EE76EFC0EDBCF14
:1014500000F0FD0EE7500016016A050ED890003628
:10146000E804FCE100C0E5FE0E01E59724D0FC0E87
:10147000DBCF00F0FD0EDBCF01F0F80E0016070EFB
:101480000116030ED89001320032E804FBE100C0DF
:10149000E0FE070EE76EFC0EDBCF00F0FD0EE7501E
:1014A0000016016A050ED8900036E804FCE100C081
:1014B000E1FE0E01E1976F6AE00E6E14FDE1E55268
:0614C000E7CFD9FF120086
:0A14C6000E0EF66E000EF76E000E1B
:1014D000F86E00010900F550D46F0900F550D56F82
:1014E00003E1D46701D03DD00900F550CF6F09006A
:1014F000F550D06F0900F550D16F09000900F55083
:10150000E96E0900F550EA6E090009000900F5507E
:10151000D26F0900F550D36F09000900F6CFD6F05D
:10152000F7CFD7F0F8CFD8F0CFC0F6FFD0C0F7FF95
:10153000D1C0F8FF0001D25302E1D35307E0090004
:10154000F550EE6ED207F8E2D307F9D7D6C0F6FF12
:10155000D7C0F7FFD8C0F8FF0001D407000ED55B55
:04156000BFD71200DF
:0C156400D9CFE6FFDACFE6FFE1CFD9FFD8
:10157000E2CFDAFFBA6AA66AFD0EDBB0BA88DBA258
:1015800002D0BA8CA68CDBB4BA8EDBA602D0A688B9
:1015900001D0A68ADBA802D0BA8401D0BA94DBBA03
:1015A000A686DBAC02D0A38A01D0A39ADBAE02D020
:1015B000A38801D0A398FB0EDB507B6EFC0EDBCF23
:1015C00001F001C000F0016A00507C6EBA8AA68E5C
:0C15D000E552E5CFDAFFE7CFD9FF1200AB
:0415DC00D9CFE6FF7E
:1015E000DACFE6FFE1CFD9FFE2CFDAFFAC6AAB6A30
:1015F000FD0EDBB0AC88DBA202D0AC8CAB8CDBB4D4
:10160000AC8EDBA602D0AB8801D0AB8ADBB8AC8451
:10161000DBBAAB86DBAC02D09D8A01D09D9ADBAEF3
:1016200002D09D8801D09D98FB0EDB50AF6EFC0E62
:10163000DBCF01F001C000F0016A00507D6EAC8A82
:0E164000AB8EE552E5CFDAFFE7CFD9FF1200FF
:02164E00D9CFF2
:10165000E6FFDACFE6FFE1CFD9FFE2CFDAFFE652CD
:10166000F20E0001DD17A6AC03D0DD91A6B0DD813E
:10167000A6B4DD85A6B2DD877A50DF6EDF50E55275
:0C168000E552E5CFDAFFE7CFD9FF1200FA
:04168C00D9CFE6FFCD
:10169000DACFE6FFE1CFD9FFE2CFDAFFE652F20E72
:1016A0000001DE17ABAC03D0DE91ABB0DE81ABB492
:1016B000DE85ABB2DE87AE50DF6EDF50E552E5521D
:0A16C000E5CFDAFFE7CFD9FF1200F3
:0616CA00D9CFE6FFDACFE4
:1016D000E6FFE1CFD9FFE2CFDAFFBAAC04D0BA908F
:1016E0000001DDB3BA80FD0EDB50796EE552E5CF27
:0816F000DAFFE7CFD9FF120079
:0816F800D9CFE6FFDACFE6FFCF
:10170000E1CFD9FFE2CFDAFFACAC04D0AC9000015E
:10171000DEB3AC80FD0EDB50AD6EE552E5CFDAFFF7
:06172000E7CFD9FF120023
:0A172600410EF36E00EE00F00E0E0F
:1017300001D81200EA6002D0EE6AFCD7F350E960EB
:061740001200EE6AFCD766
:0A1746001DEE00F02DEE00F0F86A31
:10175000079C63EC0AF003EC00F087EC00F0FBD789
:02176000120075
:041762000000000083
:020000040030CA
:010000001DE2
:0100010008F6
:010002007885
:010003007C80
:010005008971
:010006009168
:00000001FF
