:020000040000FA
:06000000FEEF03F0120008
:020006001200E6
:060008000EEF00F01200F3
:02000E000100EF
:0C00100018080000CC00000002000000F6
:04001C00DACFE4FF54
:10002000E2CFDAFFE9CFE4FFEACFE4FFF6CFE4FF67
:10003000F7CFE4FFF5CFE4FFF3CFE4FFF4CFE4FF25
:10004000FACFE4FF00EE04F0020EE80403E3EECF83
:10005000E4FFFBD700EE00F0040EE80403E3EECF6C
:10006000E4FFFBD7E652F2A402D0F2941DD09EAA80
:1000700003D0A1EC03F018D0A4AA16D0720EE66E3D
:10008000000EE66ECC0EE66E000EE66EB6D9E552B8
:10009000E552E552E5520001CD3506E2CC510008AB
:1000A000000ECD5501E28970E55200EE03F0040E1A
:1000B000E80403E3E5CFEDFFFBD700EE05F0020E09
:1000C000E80403E3E5CFEDFFFBD7E5CFFAFFE5CF8B
:1000D000F4FFE5CFF3FFE5CFF5FFE5CFF7FFE5CF81
:1000E000F6FFE5CFEAFFE5CFE9FFE5CFDAFF110044
:1000F00006D809D819D80CD8899022D8FFD7929061
:10010000F28EF28C1200F28A830ED56EF2941200F7
:10011000FD0EE66EE66A5C0EE66E49EC03F0E55213
:10012000E552E5529E9A1200190EE66EE66A6C0ED2
:10013000E66E0DEC03F0E552E552E552A49A12008A
:10014000D9CFE6FFE1CFD9FF1B0EE126240EDF6EEB
:10015000DE52500EDD6E530EF36E020EF3CFDBFF58
:10016000520EF36E030EF3CFDBFF460EF36E040E5A
:10017000F3CFDBFF310EF36E050EF3CFDBFF300E56
:10018000F36E060EF3CFDBFF330EF36E070EF3CFE5
:10019000DBFF2C0EF36E080EF3CFDBFF300EF36E99
:1001A000090EF3CFDBFF350EF36E0A0EF3CFDBFF44
:1001B0002C0EF36E0B0EF3CFDBFF300EF36E0C0E36
:1001C000F3CFDBFF300EF36E0D0EF3CFDBFF2C0E03
:1001D000F36E0E0EF3CFDBFF300EF36E0F0EF3CF88
:1001E000DBFF300EF36E100EF3CFDBFF2C0EF36E41
:1001F000110EF3CFDBFF300EF36E120EF3CFDBFFE9
:10020000310EF36E130EF3CFDBFF2A0EF36E140ED6
:10021000F3CFDBFF320EF36E150EF3CFDBFF310EA3
:10022000F36E160EF3CFDBFF0D0EF36E170EF3CF4A
:10023000DBFF0A0EF36E180EF3CFDBFFD950190F58
:10024000E96EDACFEAFFEE6AEE6A020EE66E1B0E88
:10025000E66EE66AD9CFE6FFDACFE6FF73D8006E26
:10026000050EE15E0050340EF36E0A0EF3CFDBFF95
:10027000300EF36E160EF3CFDBFF020EE66E190E94
:10028000E66EE66AD9CFE6FFDACFE6FF5BD8006E0E
:10029000050EE15E0050330EF36E0A0EF3CFDBFF66
:1002A000370EF36E160EF3CFDBFF020EE66E190E5D
:1002B000E66EE66AD9CFE6FFDACFE6FF43D8006EF6
:1002C000050EE15E0050320EF36E0A0EF3CFDBFF37
:1002D000360EF36E160EF3CFDBFF020EE66E190E2E
:1002E000E66EE66AD9CFE6FFDACFE6FF2BD8006EDE
:1002F000050EE15E0050300EF36E0A0EF3CFDBFF09
:10030000310EF36E100EF3CFDBFF350EF36E160ECB
:10031000F3CFDBFF020EE66E190EE66EE66AD9CF6A
:10032000E6FFDACFE6FF0ED8006E050EE15E005064
:100330001B0EE15C02E2E16AE552E16EE552E7CFB5
:10034000D9FF1200D9CFE6FFE1CFD9FF020EE12697
:10035000DE6ADD6ADE6ADD6ADECF00F0DDCF01F045
:10036000FB0EDBCF02F0FC0EDBCF03F001500318D5
:10037000E8AE02D0033404D00250005C03500158B0
:1003800032E2FA0EDB50020A16E0030A27E1FD0E04
:10039000DBCF00F0FE0EDBCF01F0DE500024E96E73
:1003A000DD500120EA6EEF50E66ED7EC03F0E55227
:1003B000ACB214D0FDD7FD0EDBCF00F0FE0EDBCFCC
:1003C00001F0DE500024E96EDD500120EA6EEF50AE
:1003D000E66EC0EC03F0E552BAA2FED7DF2A010EAA
:1003E000BBE3DB2AB9D7020EE15C02E2E16AE55227
:1003F000E16EE552E7CFD9FF1200D9CFE6FFE1CF9A
:10040000D9FF020EE126DE6ADD6AFD0EDBCFE9FFD1
:10041000FE0EDBCFEAFFEE6AED6A82EC03F0240801
:1004200001E0A2D0A4AAFED782EC03F0E66EFB0E98
:10043000DBCF00F0FC0EDBCF01F0DE500024E96ED4
:10044000DD500120EA6EE552E750EF6EDF2A010E23
:1004500001E3DB2ADECF00F0DDCF01F00006000E65
:10046000015AFB0EDB500024E96EFC0EDB5001202C
:10047000EA6EEF500A080CE0DECF02F0DDCF03F0A9
:10048000D890035004E6500E025C000E0358CAE3F5
:10049000FB0EDBCFE9FFFC0EDBCFEAFFEF50470896
:1004A00063E1010EE76EFB0EDBCFE9FFFC0EDBCF55
:1004B000EAFFE750E926000EEA22EF50500854E127
:1004C000020EE76EFB0EDBCFE9FFFC0EDBCFEAFF8F
:1004D000E750E926000EEA22EF50470845E1030EF7
:1004E000E76EFB0EDBCFE9FFFC0EDBCFEAFFE75048
:1004F000E926000EEA22EF50470836E1040EE76EC7
:10050000FB0EDBCFE9FFFC0EDBCFEAFFE750E9266D
:10051000000EEA22EF50410827E1050EE76EFB0EC0
:10052000DBCFE9FFFC0EDBCFEAFFE750E926000E48
:10053000EA22EF502C0818E1060EE76EFB0EDBCF27
:10054000E9FFFC0EDBCFEAFFE750E926000EEA22C6
:10055000EF500AE0FD0EDBCFE9FFFE0EDBCFEAFF36
:10056000DECFEEFFDDCFEDFF020EE15C02E2E16ADD
:0C057000E552E16EE552E7CFD9FF120022
:04057C000E0EF66EFB
:10058000000EF76E000EF86E00010900F550C76FFF
:100590000900F550C86F03E1C76701D03DD00900DD
:1005A000F550C26F0900F550C36F0900F550C46FD4
:1005B00009000900F550E96E0900F550EA6E0900DE
:1005C00009000900F550C56F0900F550C66F090014
:1005D0000900F6CFC9F0F7CFCAF0F8CFCBF0C2C010
:1005E000F6FFC3C0F7FFC4C0F8FF0001C55302E126
:1005F000C65307E00900F550EE6EC507F8E2C607DE
:10060000F9D7C9C0F6FFCAC0F7FFCBC0F8FF000199
:0A061000C707000EC85BBFD7120039
:06061A00D9CFE6FFDACFA4
:10062000E6FFE1CFD9FFE2CFDAFFBA6AA66AFD0E94
:10063000DBB0BA88DBA202D0BA8CA68CDBB4BA8E4F
:10064000DBA602D0A68801D0A68ADBA802D0BA8495
:1006500001D0BA94DBBAA686DBAC02D0A38A01D063
:10066000A39ADBAE02D0A38801D0A398FB0EDB5087
:100670007B6EFC0EDBCF01F001C000F0016A005080
:100680007C6EBA8AA68EE552E5CFDAFFE7CFD9FFB6
:02069000120056
:0E069200D9CFE6FFDACFE6FFE1CFD9FFE2CF06
:1006A000DAFFAC6AAB6AFD0EDBB0AC88DBA202D02D
:1006B000AC8CAB8CDBB4AC8EDBA602D0AB8801D0AB
:1006C000AB8ADBB8AC84DBBAAB86DBAC02D09D8AEC
:1006D00001D09D9ADBAE02D09D8801D09D98FB0E83
:1006E000DB50AF6EFC0EDBCF01F001C000F0016A01
:1006F00000507D6EAC8AAB8EE552E5CFDAFFE7CFD6
:04070000D9FF12000B
:0C070400D9CFE6FFDACFE6FFE1CFD9FF46
:10071000E2CFDAFFE652F20E0001CE17A6AC03D00C
:10072000CE91A6B0CE81A6B4CE85A6B2CE877A50A1
:10073000DF6EDF50E552E552E5CFDAFFE7CFD9FFB4
:020740001200A5
:0E074200D9CFE6FFDACFE6FFE1CFD9FFE2CF55
:10075000DAFFE652F20E0001CF17ABAC03D0CF9117
:10076000ABB0CF81ABB4CF85ABB2CF87AE50DF6E2D
:10077000DF50E552E552E5CFDAFFE7CFD9FF1200AF
:10078000D9CFE6FFDACFE6FFE1CFD9FFE2CFDAFF3C
:10079000BAAC04D0BA900001CEB3BA80FD0EDB50E3
:0E07A000796EE552E5CFDAFFE7CFD9FF120000
:0207AE00D9CFA1
:1007B000E6FFDACFE6FFE1CFD9FFE2CFDAFFACAC5C
:1007C00004D0AC900001CFB3AC80FD0EDB50AD6E19
:0C07D000E552E5CFDAFFE7CFD9FF1200B9
:0407DC00410EF36E69
:1007E00000EE00F00E0E01D81200EA6002D0EE6AB0
:0C07F000FCD7F350E9601200EE6AFCD761
:0407FC001DEE00F0FE
:100800002DEE00F0F86A059CBEEC02F003EC00F05F
:0808100078EC00F0FBD71200A8
:020818000000DE
:020000040030CA
:010000001DE2
:0100010008F6
:010002007885
:010003007C80
:010005008971
:010006009168
:00000001FF
