:020000040000FA
:060000001CEF10F01200DD
:020006001200E6
:060008000EEF00F01200F3
:02000E000100EF
:0C00100054200000DB0000000400000091
:04001C00DACFE4FF54
:10002000E2CFDAFFE9CFE4FFEACFE4FFF6CFE4FF67
:10003000F7CFE4FFF5CFE4FFF3CFE4FFF4CFE4FF25
:10004000FACFE4FF00EE16F0140EE80403E3EECF5F
:10005000E4FFFBD700EE00F0160EE80403E3EECF5A
:10006000E4FFFBD7E652F2A402D0F2942CD09EAA71
:1000700003D0A8EC0FF027D0A4AA23D0810EE66EFF
:10008000000EE66EDB0EE66E000EE66EF3D9E5526C
:10009000E552E552E5520001DC3515E2DB510C0872
:1000A000000EDC5510E2DBC0E6FFDCC0E6FF810E8F
:1000B000E66E000EE66EACDAE552E552E552E55228
:1000C00002D077B08970E55200EE15F0160EE80404
:1000D00003E3E5CFEDFFFBD700EE29F0140EE804B3
:1000E00003E3E5CFEDFFFBD7E5CFFAFFE5CFF4FF64
:1000F000E5CFF3FFE5CFF5FFE5CFF7FFE5CFF6FF5F
:10010000E5CFEAFFE5CFE9FFE5CFDAFF11000CD834
:1001100011D821D814D82BD88990320EE66EC7ECAE
:100120000FF0E5524AD8FFD7929093949386F28EBF
:10013000F28C1200F28A830ED56EF29412000C0E2D
:10014000E66EE66A6C0EE66E50EC0FF0E552E55294
:10015000E5529E9A1200190EE66EE66A6C0EE66E85
:1001600014EC0FF0E552E552E552A49A1200060E87
:10017000E66E010EE66E050EE66E010EE66EE66EAA
:10018000B5EC09F0006E050EE15E0050200EE66E43
:10019000FF0EE66EE66A2CEC0CF0E552E552E552F5
:1001A000040EE66EE66AE66A62EC0CF0E552E55291
:1001B000E5527680609E77901200D9CFE6FFE1CFBE
:1001C000D9FF1B0EE126240EDF6EDE52500EDD6ECF
:1001D000530EF36E020EF3CFDBFF520EF36E030EDF
:1001E000F3CFDBFF460EF36E040EF3CFDBFF310ED1
:1001F000F36E050EF3CFDBFF300EF36E060EF3CF7A
:10020000DBFF330EF36E070EF3CFDBFF2C0EF36E26
:10021000080EF3CFDBFF300EF36E090EF3CFDBFFDA
:10022000350EF36E0A0EF3CFDBFF2C0EF36E0B0EC2
:10023000F3CFDBFF300EF36E0C0EF3CFDBFF300E8F
:10024000F36E0D0EF3CFDBFF2C0EF36E0E0EF3CF1D
:10025000DBFF300EF36E0F0EF3CFDBFF300EF36ECD
:10026000100EF3CFDBFF2C0EF36E110EF3CFDBFF7E
:10027000300EF36E120EF3CFDBFF310EF36E130E62
:10028000F3CFDBFF2A0EF36E140EF3CFDBFF320E3B
:10029000F36E150EF3CFDBFF310EF36E160EF3CFB8
:1002A000DBFF0D0EF36E170EF3CFDBFF0A0EF36EBE
:1002B000180EF3CFDBFFD950190FE96EDACFEAFF42
:1002C000EE6AEE6A020EE66E1B0EE66EE66AD9CFA5
:1002D000E6FFDACFE6FF73D8006E050EE15E005050
:1002E000340EF36E0A0EF3CFDBFF300EF36E160EF4
:1002F000F3CFDBFF020EE66E190EE66EE66AD9CF8B
:10030000E6FFDACFE6FF5BD8006E050EE15E005037
:10031000330EF36E0A0EF3CFDBFF370EF36E160EBD
:10032000F3CFDBFF020EE66E190EE66EE66AD9CF5A
:10033000E6FFDACFE6FF43D8006E050EE15E00501F
:10034000320EF36E0A0EF3CFDBFF360EF36E160E8F
:10035000F3CFDBFF020EE66E190EE66EE66AD9CF2A
:10036000E6FFDACFE6FF2BD8006E050EE15E005007
:10037000300EF36E0A0EF3CFDBFF310EF36E100E6C
:10038000F3CFDBFF350EF36E160EF3CFDBFF020E5D
:10039000E66E190EE66EE66AD9CFE6FFDACFE6FF23
:1003A0000ED8006E050EE15E00501B0EE15C02E20D
:1003B000E16AE552E16EE552E7CFD9FF1200D9CFED
:1003C000E6FFE1CFD9FF020EE126DE6ADD6ADE6AD2
:1003D000DD6ADECF00F0DDCF01F0FB0EDBCF02F0F7
:1003E000FC0EDBCF03F001500318E8AE02D003345B
:1003F00004D00250005C0350015832E2FA0EDB5088
:10040000020A16E0030A27E1FD0EDBCF00F0FE0E24
:10041000DBCF01F0DE500024E96EDD500120EA6EF2
:10042000EF50E66EF5EC0FF0E552ACB214D0FDD70C
:10043000FD0EDBCF00F0FE0EDBCF01F0DE5000241E
:10044000E96EDD500120EA6EEF50E66EDEEC0FF053
:10045000E552BAA2FED7DF2A010EBBE3DB2AB9D7E9
:10046000020EE15C02E2E16AE552E16EE552E7CF9D
:10047000D9FF1200D9CFE6FFE1CFD9FFFD0EDBCFC8
:10048000E9FFFE0EDBCFEAFFEE6AED6A0001DD5107
:10049000DE1118E189EC0FF0240801E0B5D0FB0E65
:1004A000DB500001DD250F01E96EFC0EDB50000181
:1004B000DE210F01EA6E240EEF6E0001DD2B000E2F
:1004C000DE23A2D089EC0FF0E66EFB0EDB500001BC
:1004D000DD250F01E96EFC0EDB500001DE210F016E
:1004E000EA6EE552E750EF6E0001DD2B000EDE23D1
:1004F000DDC000F0DEC001F00006015AFB0EDB504B
:100500000024E96EFC0EDB500120EA6EEF500A0871
:1005100009E0500EDEAF02D0D89003D0DD5D000EB2
:10052000DE5972E3DD07000EDE5BFB0EDBCFE9FF79
:10053000FC0EDBCFEAFFEF50240864E1010EE76E0A
:10054000FB0EDBCFE9FFFC0EDBCFEAFFE750E9262D
:10055000000EEA22EF50470855E1020EE76EFB0E4F
:10056000DBCFE9FFFC0EDBCFEAFFE750E926000E08
:10057000EA22EF50500846E1030EE76EFB0EDBCF98
:10058000E9FFFC0EDBCFEAFFE750E926000EEA2286
:10059000EF50470837E1040EE76EFB0EDBCFE9FFB3
:1005A000FC0EDBCFEAFFE750E926000EEA22EF500F
:1005B000470828E1050EE76EFB0EDBCFE9FFFC0ED6
:1005C000DBCFEAFFE750E926000EEA22EF504108B0
:1005D00019E1060EE76EFB0EDBCFE9FFFC0EDBCF69
:1005E000EAFFE750E926000EEA22EF502C080AE164
:1005F000FD0EDBCFE9FFFE0EDBCFEAFFDDC0EEFF35
:10060000DEC0EDFFDD6BDE6BE552E7CFD9FF1200F8
:10061000D9CFE6FFE1CFD9FF1B0EE126DE6ADD6A06
:10062000020EDB6A030EDB6A1A0EDB6A010EDE6E57
:10063000DD6ADECF00F0DDCF01F0FB0EDBCF02F094
:10064000FC0EDBCF03F0040E025E000E035A0150D5
:100650000318E8AE02D0033404D00250005C03500B
:1006600001581BE21A0EDBCFE6FFFD0EDBCF00F0D8
:10067000FE0EDBCF01F0DE500024E96EDD500120DC
:10068000EA6EEF50E552E718E76E1A0EE7CFDBFF90
:10069000DF2A010ECEE3DB2ACCD7FB0EDBCF02F044
:1006A000FC0EDBCF03F0030E025E000E035AFD0EBC
:1006B000DB500224E96EFE0EDB500320EA6EEF50A1
:1006C000E66E51EC09F0E552E66EFB0EDBCF00F072
:1006D000FC0EDBCF01F0030E005E000E015AFD0E92
:1006E000DB500024E96EFE0EDB500120EA6EE5527D
:1006F000E750EF6EFB0EDBCF02F0FC0EDBCF03F01A
:10070000020E025E000E035AFD0EDB500224E96E5B
:10071000FE0EDB500320EA6EEF50E66E51EC09F05E
:10072000E552E66EFB0EDBCF00F0FC0EDBCF01F0F6
:10073000020E005E000E015AFD0EDB500024E96E31
:10074000FE0EDB500120EA6EE552E750EF6EFB0E25
:10075000DBCF04F0FC0EDBCF05F0020E045E000ED2
:10076000055AFD0EDB500424E96EFE0EDB50052019
:10077000EA6EEFCF03F0FB0EDBCF01F0FC0EDBCF18
:1007800002F0030E015E000E025AFD0EDB50012442
:10079000E96EFE0EDB500220EA6EEF38F00B032408
:1007A000006E1A0EDB50005C02E047EF09F0080E05
:1007B000E76EFD0EDBCFE9FFFE0EDBCFEAFFE75071
:1007C000E926000EEA22EF50E66E51EC09F0E55200
:1007D000006EE66E070EE76EFD0EDBCFE9FFFE0E44
:1007E000DBCFEAFFE750E926000EEA22EF50E66E83
:1007F00051EC09F0E552E552E7CF00F00A0DF35055
:10080000002400016E6F0A0EE76EFD0EDBCFE9FFDC
:10081000FE0EDBCFEAFFE750E926000EEA22EF509A
:10082000E66E51EC09F0E552006EE66E090EE76ED9
:10083000FD0EDBCFE9FFFE0EDBCFEAFFE750E92636
:10084000000EEA22EF50E66E51EC09F0E552E55257
:10085000E7CF00F00A0DF350002400016F6F0C0E7B
:10086000E76EFD0EDBCFE9FFFE0EDBCFEAFFE750C0
:10087000E926000EEA22EF50E66E51EC09F0E5524F
:10088000006EE66E0B0EE76EFD0EDBCFE9FFFE0E8F
:10089000DBCFEAFFE750E926000EEA22EF50E66ED2
:1008A00051EC09F0E552E552E7CF00F00A0DF350A4
:1008B00000240001706FFB0EDBCFE6FFFC0EDBCFE8
:1008C000E6FF0D0EE66EE66AFD0EDBCFE6FFFE0EDE
:1008D000DBCFE6FF6FEC09F0006E060EE15E005024
:1008E000F3CFDEFFF4CFDDFFFB0EDBCFE6FFFC0E28
:1008F000DBCFE6FFDECF00F0DDCF01F0010E0026FA
:10090000000E012200C0E6FF01C0E6FFFD0EDBCFB6
:10091000E6FFFE0EDBCFE6FF6FEC09F0026E060E7F
:10092000E15E0250020EF3CFDBFF030EF4CFDBFFDC
:10093000020EDBCF02F0030EDBCF03F0DE50025CD1
:10094000006EDD500358016EE83401E3D3D000504F
:100950000308000E015401E3CDD0DF2A010E01E3AC
:10096000DB2ADECF03F0DDCF04F00326000E0422E5
:10097000FD0EDB500324E96EFE0EDB500420EA6E10
:10098000EF50E66E51EC09F0E552026EE66EFD0E98
:10099000DBCF00F0FE0EDBCF01F0DE500024E96E6D
:1009A000DD500120EA6EEF50E66E51EC09F0E552A1
:1009B000E552E7CF02F00A0DF35002240001716FF7
:1009C000020EDE26000EDD22DECF03F0DDCF04F0C6
:1009D000010E0326000E0422FD0EDB500324E96EF7
:1009E000FE0EDB500420EA6EEF50E66E51EC09F08B
:1009F000E552026EE66EFD0EDBCF00F0FE0EDBCFA1
:100A000001F0DE500024E96EDD500120EA6EEF5067
:100A1000E66E51EC09F0E552E552E7CF02F00A0D1F
:100A2000F35002240001726F030EDE26000EDD2259
:100A3000DECF03F0DDCF04F0010E0326000E04220A
:100A4000FD0EDB500324E96EFE0EDB500420EA6E3F
:100A5000EF50E66E51EC09F0E552026EE66EFD0EC7
:100A6000DBCF00F0FE0EDBCF01F0DE500024E96E9C
:100A7000DD500120EA6EEF50E66E51EC09F0E552D0
:100A8000E552E7CF02F00A0DF35002240001736F24
:100A9000020EDE26000EDD22DECF03F0DDCF04F0F5
:100AA000010E0326000E0422FD0EDB500324E96E26
:100AB000FE0EDB500420EA6EEF50E66EF2DBE552EC
:100AC000026EE66EFD0EDBCF00F0FE0EDBCF01F016
:100AD000DE500024E96EDD500120EA6EEF50E66E34
:100AE000E0DBE552E552E7CF02F00A0DF3500224B5
:100AF0000001746F010EE76E020EDBCF00F0030EF3
:100B0000DBCF01F0E7500026000E0122FD0EDB5086
:100B10000024E96EFE0EDB500120EA6EEFCF75F087
:100B2000020EE76EDBCF00F0030EDBCF01F0E750E3
:100B30000026000E012200C0DEFF01C0DDFFFB0E1B
:100B4000DBCFE6FFFC0EDBCFE6FF030EE76E020E07
:100B5000DBCF00F0030EDBCF01F0E7500026000EE4
:100B6000012200C0E6FF01C0E6FFFD0EDBCFE6FF7D
:100B7000FE0EDBCFE6FFB3DB026E060EE15E025037
:100B8000020EF3CFDBFF030EF4CFDBFF020EDBCF51
:100B900002F0030EDBCF03F0DE50025C006EDD508E
:100BA0000358016EE83401E3DED000500308000E64
:100BB000015401E3D8D0020EDE26000EDD22DECF86
:100BC00003F0DDCF04F0010E0326000E0422FD0E1B
:100BD000DB500324E96EFE0EDB500420EA6EEF507A
:100BE000E66E5FDBE552026EE66EFD0EDBCF00F0D7
:100BF000FE0EDBCF01F0DE500024E96EDD50012057
:100C0000EA6EEF50E66E4DDBE552E552E7CF02F0BB
:100C10000A0DF35002240001766F020EDE26000E4C
:100C2000DD22DECF03F0DDCF04F0010E0326000E3F
:100C30000422FD0EDB500324E96EFE0EDB5004207F
:100C4000EA6EEF50E66E2DDBE552026EE66EFD0EAB
:100C5000DBCF00F0FE0EDBCF01F0DE500024E96EAA
:100C6000DD500120EA6EEF50E66E1BDBE552E552E7
:100C7000E7CF02F00A0DF35002240001776F030E54
:100C8000DE26000EDD22DECF03F0DDCF04F0010E04
:100C90000326000E0422FD0EDB500324E96EFE0E37
:100CA000DB500420EA6EEF50E66EFBDAE552026E8E
:100CB000E66EFD0EDBCF00F0FE0EDBCF01F0DE5066
:100CC0000024E96EDD500120EA6EEF50E66EE9DAAD
:100CD000E552E552E7CF02F00A0DF350022400017D
:100CE000796F020EDE26000EDD22DECF03F0DDCFAF
:100CF00004F0010E0326000E0422FD0EDB50032437
:100D0000E96EFE0EDB500420EA6EEF50E66EC9DAA3
:100D1000E552026EE66EFD0EDBCF00F0FE0EDBCF7D
:100D200001F0DE500024E96EDD500120EA6EEF5044
:100D3000E66EB7DAE552E552E7CF02F00A0DF3505E
:100D4000022400017A6F010EE76E020EDBCF00F085
:100D5000030EDBCF01F0E7500026000E012200C099
:100D6000DEFF01C0DDFFFD0EDBCF00F0FE0EDBCFAE
:100D700001F0DE500024E96EDD500120EA6EEFCF75
:100D80007BF0FB0EDBCFE6FFFC0EDBCFE6FFDECF1A
:100D9000E6FFDDCFE6FFFD0EDBCFE6FFFE0EDBCF8D
:100DA000E6FF9DDA026E060EE15E0250F3CF00F020
:100DB000F4CF01F0010E0026000E012200C0DEFF7C
:100DC00001C0DDFFFD0EDBCF00F0FE0EDBCF01F03A
:100DD000DE500024E96EDD500120EA6EEF5031084C
:100DE00001E0A0D1FB0EDBCFE6FFFC0EDBCFE6FF80
:100DF000DECFE6FFDDCFE6FFFD0EDBCFE6FFFE0E2A
:100E0000DBCFE6FF6CDA026E060EE15E0250F3CF36
:100E100000F0F4CF01F0010E0026000E012200C008
:100E2000DEFF01C0DDFFDECF03F0DDCF04F0010EF9
:100E30000326000E0422FD0EDB500324E96EFE0E95
:100E4000DB500420EA6EEF50D00F026EFD0EDBCFB8
:100E500000F0FE0EDBCF01F0DE500024E96EDD5025
:100E60000120EA6EEF50D00F0A0DF350022400016A
:100E7000806FFB0EDBCFE6FFFC0EDBCFE6FFDECFA5
:100E8000E6FFDDCFE6FFFD0EDBCFE6FFFE0EDBCF9C
:100E9000E6FF25DA026E060EE15E0250F3CF00F0A7
:100EA000F4CF01F0010E0026000E012200C0DEFF8B
:100EB00001C0DDFFFB0EDBCFE6FFFC0EDBCFE6FF64
:100EC000DECFE6FFDDCFE6FFFD0EDBCFE6FFFE0E59
:100ED000DBCFE6FF04DA026E060EE15E0250F3CFCE
:100EE00000F0F4CF01F0010E0026000E012200C038
:100EF000DEFF01C0DDFFFB0EDBCFE6FFFC0EDBCF2C
:100F0000E6FFDECFE6FFDDCFE6FFFD0EDBCFE6FF3F
:100F1000FE0EDBCFE6FFE3D9006E060EE15E005069
:100F2000020EF3CFDBFF030EF4CFDBFF020EDBCFAD
:100F30000DF0030EDBCF0EF00D06000E0E5AFD0E67
:100F4000DB500D24E96EFE0EDB500E20EA6EEF50F2
:100F5000D00F0C6E1D6EC1EC0CF01BC008F01CC055
:100F600009F01DC00AF01EC00BF0CD0E206ECC0E95
:100F7000216E226E3D0E236E7CEC0DF01BC004F042
:100F80001CC005F01DC006F01EC007F0020EDBCF2E
:100F900014F0030EDBCF15F0145E000E155AFD0E93
:100FA000DB501424E96EFE0EDB501520EA6EEFCF05
:100FB00013F013C01DF0C1EC0CF01BC00FF01CC0EF
:100FC00010F01DC011F01EC012F01BC020F01CC09C
:100FD00021F01DC022F01EC023F004C01BF005C08C
:100FE0001CF006C01DF007C01EF0E6EC0CF01BC0A4
:100FF00000F01CC001F01DC002F01EC003F0206A0A
:10100000216A400E226E420E236EE5EC0CF01BC0EE
:101010007CF01CC07DF01DC07EF01EC07FF0020E73
:10102000DBCF02F0030EDBCF03F0DE50025C006E7C
:10103000DD500358016E040E001801E1015035E047
:10104000050E00186FE101506DE1020EDBCF08F0D4
:10105000030EDBCF09F0040E085E000E095AFD0EE8
:10106000DB500824E96EFE0EDB500920EA6EEF50DB
:10107000D00F0A0DF3CF07F0020EDBCF05F0030E01
:10108000DBCF06F0050E055E000E065AFD0EDB50A6
:101090000524E96EFE0EDB500620EA6EEF50D00FFD
:1010A000640DF3500724046E17D0020EDBCF05F059
:1010B000030EDBCF06F0040E055E000E065AFD0E91
:1010C000DB500524E96EFE0EDB500620EA6EEF5081
:1010D000D00F0A0DF3CF04F004C01DF0C1EC0CF0EA
:1010E0001BC000F01CC001F01DC002F01EC003F0C8
:1010F0001BC020F01CC021F01DC022F01EC023F038
:101100007CC01BF07DC01CF07EC01DF07FC01EF0B7
:10111000E6EC0CF01BC07CF01CC07DF01DC07EF026
:101120001EC07FF0040E6EC0DBFF050E6FC0DBFF3C
:10113000060E70C0DBFF2C0EF36E070EF3CFDBFF45
:10114000080E71C0DBFF090E72C0DBFF0A0E73C010
:10115000DBFF0B0E74C0DBFF0C0E75C0DBFF2C0E2B
:10116000F36E0D0EF3CFDBFF0E0E76C0DBFF0F0E1E
:1011700077C0DBFF100E79C0DBFF110E7AC0DBFFFA
:10118000120E7BC0DBFF2C0EF36E130EF3CFDBFFD2
:101190007CC01BF07DC01CF07EC01DF07FC01EF027
:1011A00010EC0EF01DC000F0016A140E1DC0DBFF34
:1011B0007CC01BF07DC01CF07EC01DF07FC01EF007
:1011C00010EC0EF01CC000F01DC001F0FF0E001668
:1011D000000E0116150E00C0DBFF7CC01BF07DC0A9
:1011E0001CF07EC01DF07FC01EF010EC0EF0D2ECA3
:1011F0000CF01BC004F01CC005F01DC006F01EC0A2
:1012000007F01BC020F01CC021F01DC022F01EC042
:1012100023F07CC01BF07DC01CF07EC01DF07FC0A1
:101220001EF0E5EC0CF01BC000F01CC001F01DC06E
:1012300002F01EC003F0206A216A200E226E410EC9
:10124000236E7CEC0DF0E9EC0DF0160E1DC0DBFFFB
:101250002C0EF36E170EF3CFDBFF180E80C0DBFFF2
:101260000A0EF36E190EF3CFDBFF010EE66E160EBB
:10127000E66EE66AD950040FE66E000EDA20E66EDE
:10128000DFEC01F0006E050EE15E005089701B0E70
:10129000E15C02E2E16AE552E16EE552E7CFD9FF97
:1012A0001200D9CFE6FFE1CFD9FFE652FE0EDB50A8
:1012B000D00FDF6EDFCF00F00F0EE76E0018E8AE44
:1012C00002D0003403D0E750D880005402E2070E69
:1012D000DF5EDF50E552E552E7CFD9FF1200D9CFEC
:1012E000E6FFE1CFD9FF020EE126FB0EDBCFDEFFEA
:1012F000DBCFDDFFFD0EDBCF00F0FE0EDBCF01F01C
:10130000DE500024E96EDD500120EA6EEF502C081B
:101310001AE0DECF02F0DDCF03F0F90EDBCF04F0F0
:10132000FA0EDBCF05F003500518E8AE02D0053405
:1013300004D00450025C0550035805E2DF2A010E78
:10134000D9E3DB2AD7D7DECF00F0DDCF01F000C034
:10135000F3FF01C0F4FF020EE15C02E2E16AE55234
:0A136000E16EE552E7CFD9FF12005D
:06136A00D9CFE6FFE1CF40
:10137000D9FF800E6F6E6EAEFED77250726E708A9D
:101380007088FE0EDB50020B0E01E8B0438FE8A020
:10139000439FFE0EDB50010BE8B0438DE8A0439D58
:1013A000FD0EDB50200BE8B0438BE8A0439BFD0E05
:1013B000DB50100BE8B04389E8A04399FD0EDB50E9
:1013C000080BE8B04387E8A04397FD0EDB50040B01
:1013D000E8B04385E8A04395FD0EDB50020BE8B072
:1013E0004383E8A04393FD0EDB50010BE8B043813B
:1013F000E8A04391FC0EDB50040BE8B0448BE8A05E
:10140000449BFC0EDB50020BE8B04489E8A04499F1
:10141000FC0EDB50010BE8B04487E8A04497448FF2
:10142000FB0EDB50040BE8B04585E8A04595FB0EAC
:10143000DB50020BE8B04583E8A04593FB0EDB5080
:10144000010BE8B04581E8A04591FA0EDB50040B92
:10145000E8B04485E8A04495FA0EDB50020BE8B0F2
:101460004483E8A04493FA0EDB50010BE8B04481BA
:10147000E8A04491609E609C608AF86BF96B6F6A8B
:10148000E00E6E14FDE1E552E7CFD9FF1200D9CF8F
:10149000E6FFE1CFD9FF030EE126DE6ADD6A615087
:1014A000080DF350E66EFD0EDBCFE9FFFE0EDBCF3D
:1014B000EAFFE552E750EE6EED6A6250E00BE83865
:1014C000E840006E016AFD0EDBCFE9FFFE0EDBCFC8
:1014D000EAFF0050EE260150ED220F0E6514E66E75
:1014E000F90EDBCFE9FFFA0EDBCFEAFFE552E7505A
:1014F000EF6E020EDB6AF90EDBCFE9FFFA0EDBCFEF
:10150000EAFFEF50F36E020EDBCFF4FFF350F45C12
:1015100001E389D0020EDB50070A71E0010A60E0A6
:10152000030A4FE0010A3EE0070A2DE0010A1CE031
:10153000030A0BE0010A72E1FB0EDBCFE9FFFC0EB0
:10154000DBCFEAFF66CFEFFF6BD0010EE76EFB0E3D
:10155000DBCFE9FFFC0EDBCFEAFFE750E926000E08
:10156000EA2267CFEFFF5CD0020EE76EFB0EDBCF07
:10157000E9FFFC0EDBCFEAFFE750E926000EEA2286
:1015800068CFEFFF4DD0030EE76EFB0EDBCFE9FF18
:10159000FC0EDBCFEAFFE750E926000EEA2269CF16
:1015A000EFFF3ED0040EE76EFB0EDBCFE9FFFC0E33
:1015B000DBCFEAFFE750E926000EEA226ACFEFFF11
:1015C0002FD0050EE76EFB0EDBCFE9FFFC0EDBCF65
:1015D000EAFFE750E926000EEA226BCFEFFF20D0AA
:1015E000060EE76EFB0EDBCFE9FFFC0EDBCFEAFF5A
:1015F000E750E926000EEA226CCFEFFF11D0070E6C
:10160000E76EFB0EDBCFE9FFFC0EDBCFEAFFE75016
:10161000E926000EEA226DCFEFFF02D0DE68DD681A
:10162000020EDB2A68D7609E7790DECF00F0DDCF18
:1016300001F000C0F3FF01C0F4FF030EE15C02E221
:10164000E16AE552E16EE552E7CFD9FF1200D9CF4A
:10165000E6FFE1CFD9FF030EE126DE6ADD6A0F0166
:1016600020B7E6D0020EDB6AFA0EDB50F36E020EF4
:10167000DBCFF4FFF350F45C01E389D0020EDB50C2
:10168000070A71E0010A60E0030A4FE0010A3EE048
:10169000070A2DE0010A1CE0030A0BE0010A72E1CF
:1016A000FB0EDBCFE9FFFC0EDBCFEAFFEFCF26FF1F
:1016B0006BD0010EE76EFB0EDBCFE9FFFC0EDBCF3C
:1016C000EAFFE750E926000EEA22EFCF27FF5CD0C1
:1016D000020EE76EFB0EDBCFE9FFFC0EDBCFEAFF6D
:1016E000E750E926000EEA22EFCF28FF4DD0030E87
:1016F000E76EFB0EDBCFE9FFFC0EDBCFEAFFE75026
:10170000E926000EEA22EFCF29FF3ED0040EE76E55
:10171000FB0EDBCFE9FFFC0EDBCFEAFFE750E9264B
:10172000000EEA22EFCF2AFF2FD0050EE76EFB0E48
:10173000DBCFE9FFFC0EDBCFEAFFE750E926000E26
:10174000EA22EFCF2BFF20D0060EE76EFB0EDBCF99
:10175000E9FFFC0EDBCFEAFFE750E926000EEA22A4
:10176000EFCF2CFF11D0070EE76EFB0EDBCFE9FFAA
:10177000FC0EDBCFEAFFE750E926000EEA22EFCFAE
:101780002DFF02D0DE68DD68020EDB2A6DD70F0167
:101790002297FD0EDBCF00F0FE0EDBCF01F0F80E3E
:1017A0000016070E0116030ED89001320032E8042D
:1017B000FBE100C021FF070EE76EFD0EDBCF00F05E
:1017C000FE0EE7500016016A050ED8900036E804B8
:1017D000FCE100C022FFFA0EDB50080BE840E840B5
:1017E000E8401F0B0F01E8B02587E8A02597FA0E07
:1017F000DB50040BE840E8403F0BE8B02585E8A04B
:101800002595FA0EDB50020BE8407F0BE8B02583EC
:10181000E8A02593FA0EDB50010BE8B02581E8A083
:101820002591259DF90EDB502011206F208702D0D5
:10183000DE68DD68DECF00F0DDCF01F000C0F3FF31
:1018400001C0F4FF030EE15C02E2E16AE552E16EE1
:10185000E552E7CFD9FF1200D9CFE6FFE1CFD9FF9C
:10186000800E6F6E6EAEFED7FD0EDBCF00F0FE0E6B
:10187000DBCF01F0F80E0016070E0116030ED8900C
:1018800001320032E804FBE100C0F8FE070EE76E0B
:10189000FD0EDBCF00F0FE0EE7500016016A050ECC
:1018A000D8900036E804FCE100C0F9FEFC0EDB50E5
:1018B0006010606E6F6AE00E6E14FDE1E552E7CFD6
:1018C000D9FF1200D9CFE6FFE1CFD9FF800E6F6EAE
:1018D0006EAEFED7FE0EDB50010A25E1FC0EDBCF1B
:1018E00000F0FD0EDBCF01F0F80E0016070E01161A
:1018F000030ED89001320032E804FBE100C0E4FEA0
:10190000070EE76EFC0EDBCF00F0FD0EE750001671
:10191000016A050ED8900036E804FCE100C0E5FE3F
:101920000E01E59724D0FC0EDBCF00F0FD0EDBCFDF
:1019300001F0F80E0016070E0116030ED8900132C2
:101940000032E804FBE100C0E0FE070EE76EFC0E8B
:10195000DBCF00F0FD0EE7500016016A050ED890AF
:101960000036E804FCE100C0E1FE0E01E1976F6A79
:0E197000E00E6E14FDE1E552E7CFD9FF120044
:02197E00259EA4
:1019800005D0259E1DAE02D01D6C258E1DC017F002
:10199000166A296A286A860E186E196A5BEF0EF0BD
:1019A000259E08D0259E1DAE05D01C6C1D1EE86A24
:1019B0001D22258E1DC017F01CC016F0296A286A4A
:1019C0008E0E186E196A5BEF0EF0237E256A97EC77
:1019D0000EF0AFEC0EF025B63FEF0EF025A20AD0C8
:1019E00025AA03D025BE3FEF0EF025A44BEF0EF045
:1019F00048EF0EF025AA05D025AC4BEF0EF048EFCE
:101A00000EF025A00AD025A808D025BE04D025A414
:101A100002D054EF0EF058EF0EF0286A196A2350E6
:101A20001E5C276E10E31BC029F01CC016F01DC001
:101A300017F01EC026F020C01BF021C01CF022C0F1
:101A40001DF0253A09D020C029F021C016F022C08F
:101A500017F023C026F0276C259E25BC258E26C0B6
:101A600018F025B087EF0EF01A0E276087EF0EF002
:101A7000186A1E6A25A408D01B6C1C1E1D1E1E1E83
:101A8000E86A1C221D221E2225AC08D0296C161ED5
:101A9000171E181EE86A1622172218221A6A2752E1
:101AA00007E01E341D321C321B321A32272EF9D7A2
:101AB0001B5029261C5016221D5017221E5018227A
:101AC0001AC028F0259E18AE0BD0286C291E161EB1
:101AD000171E181EE86A2922162217221822258EA0
:101AE00018A006D0D8801732163229322832262A7A
:101AF00026C018F05BEF0EF0256A97EC0EF0AFEC05
:101B00000EF025B63FEF0EF025A205D025B83FEF29
:101B10000EF046EF0EF025AA05D025B03FEF0EF0EF
:101B200046EF0EF025B002D025A802D052EF0EF0FD
:101B3000196A23501E24186EE86A19227E0E185E58
:101B4000E86A195A286A296A166A176A22501D0219
:101B5000F4CF17F0F3CF16F021501D02F3502926D1
:101B6000F4501622000E172222501C02F350292690
:101B7000F4501622000E172220501D02F350282682
:101B8000F4502922000E1622172221501C02F35075
:101B90002826F4502922000E1622172222501B025A
:101BA000F3502826F4502922000E16221722205026
:101BB0001C02F4502826000E29221622172221503A
:101BC0001B02F4502826000E2922162217225BEF52
:101BD0000EF0256A97EC0EF025B6F3EF0DF025A276
:101BE0000AD025B403D07F0E1D6E19D0800E1D6E55
:101BF00016D01D6A14D025B0FCD7870E1E60F1D711
:101C00007E0E1E64F6D7860E1E5C04E0D8901D3250
:101C10001E2AF9D725A403D01D6C1DAEEAD71200E9
:101C2000256A97EC0EF025B61AEF0EF025A20ED01D
:101C300025B405D07F0E1D6EFF0E1C6E1FD0800ECA
:101C40001D6E1C6A1BD01D6A1C6A18D025B0FBD7FC
:101C50008F0E1E60EDD77E0E1E64F5D78E0E1E5CB5
:101C600005E0D8901D321C321E2AF8D725A406D0D4
:101C70001C6C1D1EE86A1D221DAEE5D712007F0EEA
:101C80001E6EFF0E1D6E1C6E1B6E12007F0E25BE9B
:101C9000FF0E1E6E02D07F0E1E6E800E1D6E1C6A21
:101CA0001B6AF3D725AE04D0800E1E6E1D6AF7D7CF
:101CB0001E6A1D6AF4D71750161029102810F8E074
:101CC00019BEF0D717BE0CD018501910EBE0D89001
:101CD00028362936163617361806D8A01906F2D730
:101CE0001950D4E11828D2E028AE11D07F0E281464
:101CF00002E129A00CD0292AE86A1622172207E35C
:101D0000D880173216322932182A1828BFE0185006
:101D1000C9E029C01BF016C01CF017341D6E183026
:101D20001E6E1D321E9E25BE1E8E45EF0EF01D3608
:101D30001E3602E32584257E06E125801E6A1D6A83
:101D40001C6A1B6A12001E2803E0D8801D32120094
:101D5000D8901D3202E1258212002586120022361B
:101D6000233602E3258C257E06E12588236A226A34
:101D7000216A206A1200232803E0D8802232120050
:0A1D8000D8902232EAE1258A120011
:061D8A000E0EF66E000EC5
:101D9000F76E000EF86E00010900F550D66F0900CD
:101DA000F550D76F03E1D66701D03DD00900F5505B
:101DB000D16F0900F550D26F0900F550D36F0900BB
:101DC0000900F550E96E0900F550EA6E09000900B6
:101DD0000900F550D46F0900F550D56F09000900CE
:101DE000F6CFD8F0F7CFD9F0F8CFDAF0D1C0F6FFC0
:101DF000D2C0F7FFD3C0F8FF0001D45302E1D5539E
:101E000007E00900F550EE6ED407F8E2D507F9D7E0
:101E1000D8C0F6FFD9C0F7FFDAC0F8FF0001D60737
:081E2000000ED75BBFD71200D2
:081E2800D9CFE6FFDACFE6FF97
:101E3000E1CFD9FFE2CFDAFFBA6AA66AFD0EDBB0C6
:101E4000BA88DBA202D0BA8CA68CDBB4BA8EDBA631
:101E500002D0A68801D0A68ADBA802D0BA8401D01D
:101E6000BA94DBBAA686DBAC02D0A38A01D0A39ACF
:101E7000DBAE02D0A38801D0A398FB0EDB507B6EB3
:101E8000FC0EDBCF01F001C000F0016A00507C6E57
:101E9000BA8AA68EE552E5CFDAFFE7CFD9FF120066
:101EA000D9CFE6FFDACFE6FFE1CFD9FFE2CFDAFF05
:101EB000AC6AAB6AFD0EDBB0AC88DBA202D0AC8CA6
:101EC000AB8CDBB4AC8EDBA602D0AB8801D0AB8A86
:101ED000DBB8AC84DBBAAB86DBAC02D09D8A01D028
:101EE0009D9ADBAE02D09D8801D09D98FB0EDB5001
:101EF000AF6EFC0EDBCF01F001C000F0016A0050B4
:101F00007D6EAC8AAB8EE552E5CFDAFFE7CFD9FF25
:021F10001200BD
:0E1F1200D9CFE6FFDACFE6FFE1CFD9FFE2CF6D
:101F2000DAFFE652F20E0001DF17A6AC03D0DF9114
:101F3000A6B0DF81A6B4DF85A6B2DF877A50DF6E58
:101F4000DF50E552E552E5CFDAFFE7CFD9FF1200C7
:101F5000D9CFE6FFDACFE6FFE1CFD9FFE2CFDAFF54
:101F6000E652F20E0001E017ABAC03D0E091ABB04B
:101F7000E081ABB4E085ABB2E087AE50DF6EDF50FE
:0E1F8000E552E552E5CFDAFFE7CFD9FF1200B8
:021F8E00FF0E44
:101F9000E3502B6EEF0E01D0F30EE76EE72ECEEF7F
:101FA0000FF00C0E2A6EE76AE72ED4EF0FF02A2E00
:0C1FB000D3EF0FF02B2ECCEF0FF012003F
:041FBC00D9CFE6FF94
:101FC000DACFE6FFE1CFD9FFE2CFDAFFBAAC04D037
:101FD000BA900001DFB3BA80FD0EDB50796EE55296
:0A1FE000E5CFDAFFE7CFD9FF1200CA
:061FEA00D9CFE6FFDACFBB
:101FF000E6FFE1CFD9FFE2CFDAFFACAC04D0AC9082
:102000000001E0B3AC80FD0EDB50AD6EE552E5CFD4
:08201000DAFFE7CFD9FF12004F
:08201800410EF36E00EE00F032
:102020000E0E01D81200EA6002D0EE6AFCD7F3501F
:08203000E9601200EE6AFCD722
:082038001DEE00F02DEE00F09A
:10204000F86A259CC5EC0EF003EC00F087EC00F07C
:04205000FBD71200A8
:042054000000000088
:020000040030CA
:010000001DE2
:0100010008F6
:010002007885
:010003007C80
:010005008971
:010006009168
:00000001FF
