:020000040000FA
:06000000EDEF03F0120019
:020006001200E6
:060008000EEF00F01200F3
:02000E000100EF
:0C001000F60700000A0E000009000000C6
:04001C00DACFE4FF54
:10002000E2CFDAFFE9CFE4FFEACFE4FFF6CFE4FF67
:10003000F7CFE4FFF5CFE4FFF3CFE4FFF4CFE4FF25
:10004000FACFE4FF00EE04F0020EE80403E3EECF83
:10005000E4FFFBD700EE00F0040EE80403E3EECF6C
:10006000E4FFFBD7E652F2A402D0F2942BD09EAA72
:1000700006D09E9A79EC03F0CF0824E122D0A4AAFE
:1000800021D0A49A430E0E0112AF02D0D89003D013
:10009000115D000E12590DE2720EE66E000EE66E54
:1000A000110EE66E0E0EE66EC1D9E552E552E5522E
:1000B000E5520E01430E111905E1125103E1116BD6
:1000C000126B8970E55200EE03F0040EE80403E3BE
:1000D000E5CFEDFFFBD700EE05F0020EE80403E3E9
:1000E000E5CFEDFFFBD7E5CFFAFFE5CFF4FFE5CF96
:1000F000F3FFE5CFF5FFE5CFF7FFE5CFF6FFE5CF5F
:10010000EAFFE5CFE9FFE5CFDAFF11000ED811D8FD
:1001100021D814D82C0EE66E010EE66E98EC03F092
:10012000E552E55223D88990FFD79290F28EF28C57
:100130001200F28A830ED56EF2941200FD0EE66E66
:10014000E66A5C0EE66E21EC03F0E552E552E552FC
:100150009E9A1200FD0EE66EE66A5C0EE66EE5EC17
:1001600002F0E552E552E552A49A1200D9CFE6FF1B
:10017000E1CFD9FF1B0EE126240EDF6EDE52500EBA
:10018000DD6E530EF36E020EF3CFDBFF520EF36EF5
:10019000030EF3CFDBFF460EF36E040EF3CFDBFF4F
:1001A000310EF36E050EF3CFDBFF300EF36E060E4D
:1001B000F3CFDBFF330EF36E070EF3CFDBFF2C0E16
:1001C000F36E080EF3CFDBFF300EF36E090EF3CFA4
:1001D000DBFF350EF36E0A0EF3CFDBFF2C0EF36E52
:1001E0000B0EF3CFDBFF300EF36E0C0EF3CFDBFF05
:1001F000300EF36E0D0EF3CFDBFF2C0EF36E0E0EF2
:10020000F3CFDBFF300EF36E0F0EF3CFDBFF300EBC
:10021000F36E100EF3CFDBFF2C0EF36E110EF3CF47
:10022000DBFF300EF36E120EF3CFDBFF310EF36EF9
:10023000130EF3CFDBFF2A0EF36E140EF3CFDBFFAA
:10024000320EF36E150EF3CFDBFF310EF36E160E8A
:10025000F3CFDBFF5C0EF36E170EF3CFDBFF720EF6
:10026000F36E180EF3CFDBFF5C0EF36E190EF3CFB7
:10027000DBFF6E0EF36E1A0EF3CFDBFF020EE66E9F
:100280001B0EE66EE66AD9CFE6FFDACFE6FF73D83B
:10029000006E050EE15E0050340EF36E0A0EF3CFD1
:1002A000DBFF300EF36E160EF3CFDBFF020EE66EB1
:1002B0001B0EE66EE66AD9CFE6FFDACFE6FF5BD823
:1002C000006E050EE15E0050330EF36E0A0EF3CFA2
:1002D000DBFF370EF36E160EF3CFDBFF020EE66E7A
:1002E0001B0EE66EE66AD9CFE6FFDACFE6FF43D80B
:1002F000006E050EE15E0050320EF36E0A0EF3CF73
:10030000DBFF360EF36E160EF3CFDBFF020EE66E4A
:100310001B0EE66EE66AD9CFE6FFDACFE6FF2BD8F2
:10032000006E050EE15E0050300EF36E0A0EF3CF44
:10033000DBFF310EF36E100EF3CFDBFF350EF36EE5
:10034000160EF3CFDBFF020EE66E1B0EE66EE66ABC
:10035000D9CFE6FFDACFE6FF0ED8006E050EE15EDC
:1003600000501B0EE15C02E2E16AE552E16EE552EB
:10037000E7CFD9FF1200D9CFE6FFE1CFD9FF020EB8
:10038000E126DE6ADD6ADE6ADD6ADECF00F0DDCFFF
:1003900001F0FB0EDBCF02F0FC0EDBCF03F00150CF
:1003A0000318E8AE02D0033404D00250005C0350BE
:1003B000015832E2FA0EDB50020A16E0030A27E186
:1003C000FD0EDBCF00F0FE0EDBCF01F0DE5000248F
:1003D000E96EDD500120EA6EEF50E66EC6EC03F0E8
:1003E000E552ACB214D0FDD7FD0EDBCF00F0FE0E0F
:1003F000DBCF01F0DE500024E96EDD500120EA6E13
:10040000EF50E66EAFEC03F0E552BAA2FED7DF2A5A
:10041000010EBBE3DB2AB9D7020EE15C02E2E16A1E
:10042000E552E16EE552E7CFD9FF1200D9CFE6FFE2
:10043000E1CFD9FF5AEC03F0E66EFB0EDBCF00F004
:10044000FC0EDBCF01F0FD0EDBCFE9FFFE0EDBCFB4
:10045000EAFF0050EE24E76E0150EE20EA6EE7CF8F
:10046000E9FFE552E750EF6EFD0EDBCFE9FFFE0E30
:10047000DBCFEAFFEECF00F0EFCF01F0D8900150D4
:1004800004E6070E005C000E015830E2FB0EDBCFE5
:1004900001F0FC0EDBCF02F0FD0EDBCFE9FFFE0E1C
:1004A000DBCFEAFF0150EE24E76E0250EE20EA6E49
:1004B000E7CFE9FFEFCF00F0FD0EDBCFE9FFFE0E47
:1004C000DBCFEAFFEE50EFCFEAFFE96E0A0EE92636
:1004D0000E0EEA22EF50005C09E0FD0EDBCFE9FFD3
:1004E000FE0EDBCFEAFFEE6AED6A12D0D950FD0FA7
:1004F000E96EFF0EDA20EA6EEECFF3FFEDCFF4FFE8
:10050000020EEE26000EEF22F3CFE9FFF4CFEAFF52
:10051000FD0EDBCFE9FFFE0EDBCFEAFFEE50ED1064
:0C05200001E08970E552E7CFD9FF12001E
:04052C000E0EF66E4B
:10053000000EF76E000EF86E0E010900F550056F03
:100540000900F550066F03E1056701D03DD00900B1
:10055000F550006F0900F550016F0900F550026F6A
:1005600009000900F550E96E0900F550EA6E09002E
:1005700009000900F550036F0900F550046F0900E8
:100580000900F6CF07FEF7CF08FEF8CF09FE00CE30
:10059000F6FF01CEF7FF02CEF8FF0E01035302E192
:1005A000045307E00900F550EE6E0307F8E2040774
:1005B000F9D707CEF6FF08CEF7FF09CEF8FF0E01F8
:0A05C0000507000E065BBFD712000E
:0605CA00D9CFE6FFDACFF5
:1005D000E6FFE1CFD9FFE2CFDAFFBA6AA66AFD0EE5
:1005E000DBB0BA88DBA202D0BA8CA68CDBB4BA8EA0
:1005F000DBA602D0A68801D0A68ADBA802D0BA84E6
:1006000001D0BA94DBBAA686DBAC02D0A38A01D0B3
:10061000A39ADBAE02D0A38801D0A398FB0EDB50D7
:100620007B6EFC0EDBCF01F001C000F0016A0050D0
:100630007C6EBA8AA68EE552E5CFDAFFE7CFD9FF06
:020640001200A6
:0E064200D9CFE6FFDACFE6FFE1CFD9FFE2CF56
:10065000DAFFAC6AAB6AFD0EDBB0AC88DBA202D07D
:10066000AC8CAB8CDBB4AC8EDBA602D0AB8801D0FB
:10067000AB8ADBB8AC84DBBAAB86DBAC02D09D8A3C
:1006800001D09D9ADBAE02D09D8801D09D98FB0ED3
:10069000DB50AF6EFC0EDBCF01F001C000F0016A51
:1006A00000507D6EAC8AAB8EE552E5CFDAFFE7CF26
:0406B000D9FF12005C
:0C06B400D9CFE6FFDACFE6FFE1CFD9FF97
:1006C000E2CFDAFFE652F20E0E011317A6AC03D00A
:1006D0001391A6B01381A6B41385A6B213877A50DE
:1006E000DF6EDF50E552E552E5CFDAFFE7CFD9FF05
:0206F0001200F6
:0E06F200D9CFE6FFDACFE6FFE1CFD9FFE2CFA6
:10070000DAFFE652F20E0E011417ABAC03D01491CF
:10071000ABB01481ABB41485ABB21487AE50DF6EAE
:10072000DF50E552E552E5CFDAFFE7CFD9FF1200FF
:10073000FF0EE350076EEF0E01D0F30EE76EE72ECB
:100740009FEF03F00C0E066EE76AE72EA5EF03F0AD
:0E075000062EA4EF03F0072E9DEF03F012001B
:02075E00D9CFF1
:10076000E6FFDACFE6FFE1CFD9FFE2CFDAFFBAAC9E
:1007700004D0BA900E0113B3BA80FD0EDB50796E2F
:0C078000E552E5CFDAFFE7CFD9FF120009
:04078C00D9CFE6FFDC
:10079000DACFE6FFE1CFD9FFE2CFDAFFACAC04D08D
:1007A000AC900E0114B3AC80FD0EDB50AD6EE55283
:0A07B000E5CFDAFFE7CFD9FF120012
:0607BA00410EF36E00EE9B
:1007C00000F00E0E01D81200EA6002D0EE6AFCD7EB
:0A07D000F350E9601200EE6AFCD756
:0607DA001DEE00F02DEE03
:1007E00000F0F86A059C96EC02F003EC00F086EC51
:0607F00000F0FBD712002F
:0907F6004447504747412C000024
:020000040030CA
:010000001DE2
:0100010008F6
:010002007885
:010003007C80
:010005008971
:010006009168
:00000001FF
